{
  "contractName": "Creatorcoins",
  "abi": [
    {
      "inputs": [],
      "stateMutability": "nonpayable",
      "type": "constructor"
    },
    {
      "anonymous": false,
      "inputs": [
        {
          "indexed": true,
          "internalType": "address",
          "name": "tokenOwner",
          "type": "address"
        },
        {
          "indexed": true,
          "internalType": "address",
          "name": "spender",
          "type": "address"
        },
        {
          "indexed": false,
          "internalType": "uint256",
          "name": "tokens",
          "type": "uint256"
        }
      ],
      "name": "Approval",
      "type": "event"
    },
    {
      "anonymous": false,
      "inputs": [
        {
          "indexed": true,
          "internalType": "address",
          "name": "from",
          "type": "address"
        },
        {
          "indexed": true,
          "internalType": "address",
          "name": "to",
          "type": "address"
        },
        {
          "indexed": false,
          "internalType": "uint256",
          "name": "tokens",
          "type": "uint256"
        }
      ],
      "name": "Transfer",
      "type": "event"
    },
    {
      "inputs": [
        {
          "internalType": "address",
          "name": "",
          "type": "address"
        }
      ],
      "name": "accounts",
      "outputs": [
        {
          "internalType": "uint256",
          "name": "",
          "type": "uint256"
        }
      ],
      "stateMutability": "view",
      "type": "function",
      "constant": true
    },
    {
      "inputs": [
        {
          "internalType": "address",
          "name": "",
          "type": "address"
        },
        {
          "internalType": "address",
          "name": "",
          "type": "address"
        }
      ],
      "name": "approved",
      "outputs": [
        {
          "internalType": "uint256",
          "name": "",
          "type": "uint256"
        }
      ],
      "stateMutability": "view",
      "type": "function",
      "constant": true
    },
    {
      "inputs": [],
      "name": "decimals",
      "outputs": [
        {
          "internalType": "uint256",
          "name": "",
          "type": "uint256"
        }
      ],
      "stateMutability": "view",
      "type": "function",
      "constant": true
    },
    {
      "inputs": [],
      "name": "name",
      "outputs": [
        {
          "internalType": "string",
          "name": "",
          "type": "string"
        }
      ],
      "stateMutability": "view",
      "type": "function",
      "constant": true
    },
    {
      "inputs": [],
      "name": "owneroftokens",
      "outputs": [
        {
          "internalType": "address",
          "name": "",
          "type": "address"
        }
      ],
      "stateMutability": "view",
      "type": "function",
      "constant": true
    },
    {
      "inputs": [],
      "name": "symbol",
      "outputs": [
        {
          "internalType": "string",
          "name": "",
          "type": "string"
        }
      ],
      "stateMutability": "view",
      "type": "function",
      "constant": true
    },
    {
      "inputs": [],
      "name": "totalsupply",
      "outputs": [
        {
          "internalType": "uint256",
          "name": "",
          "type": "uint256"
        }
      ],
      "stateMutability": "view",
      "type": "function",
      "constant": true
    },
    {
      "inputs": [],
      "name": "owner",
      "outputs": [
        {
          "internalType": "address",
          "name": "",
          "type": "address"
        }
      ],
      "stateMutability": "view",
      "type": "function",
      "constant": true
    },
    {
      "inputs": [],
      "name": "totalSupply",
      "outputs": [
        {
          "internalType": "uint256",
          "name": "",
          "type": "uint256"
        }
      ],
      "stateMutability": "view",
      "type": "function",
      "constant": true
    },
    {
      "inputs": [
        {
          "internalType": "address",
          "name": "tokenowner",
          "type": "address"
        }
      ],
      "name": "balanceOf",
      "outputs": [
        {
          "internalType": "uint256",
          "name": "",
          "type": "uint256"
        }
      ],
      "stateMutability": "view",
      "type": "function",
      "constant": true
    },
    {
      "inputs": [
        {
          "internalType": "address",
          "name": "to",
          "type": "address"
        },
        {
          "internalType": "uint256",
          "name": "tokens",
          "type": "uint256"
        }
      ],
      "name": "transfering",
      "outputs": [
        {
          "internalType": "bool",
          "name": "success",
          "type": "bool"
        }
      ],
      "stateMutability": "nonpayable",
      "type": "function"
    },
    {
      "inputs": [
        {
          "internalType": "address",
          "name": "from",
          "type": "address"
        },
        {
          "internalType": "uint256",
          "name": "tokens",
          "type": "uint256"
        }
      ],
      "name": "transfer",
      "outputs": [
        {
          "internalType": "bool",
          "name": "success",
          "type": "bool"
        }
      ],
      "stateMutability": "nonpayable",
      "type": "function"
    },
    {
      "inputs": [
        {
          "internalType": "address",
          "name": "spender",
          "type": "address"
        },
        {
          "internalType": "uint256",
          "name": "tokens",
          "type": "uint256"
        }
      ],
      "name": "approve",
      "outputs": [
        {
          "internalType": "bool",
          "name": "success",
          "type": "bool"
        }
      ],
      "stateMutability": "nonpayable",
      "type": "function"
    },
    {
      "inputs": [
        {
          "internalType": "address",
          "name": "tokenOwner",
          "type": "address"
        },
        {
          "internalType": "address",
          "name": "spender",
          "type": "address"
        }
      ],
      "name": "allowance",
      "outputs": [
        {
          "internalType": "uint256",
          "name": "",
          "type": "uint256"
        }
      ],
      "stateMutability": "view",
      "type": "function",
      "constant": true
    },
    {
      "inputs": [
        {
          "internalType": "address",
          "name": "from",
          "type": "address"
        },
        {
          "internalType": "address",
          "name": "to",
          "type": "address"
        },
        {
          "internalType": "uint256",
          "name": "tokens",
          "type": "uint256"
        }
      ],
      "name": "transferFrom",
      "outputs": [
        {
          "internalType": "bool",
          "name": "",
          "type": "bool"
        }
      ],
      "stateMutability": "nonpayable",
      "type": "function"
    }
  ],
  "bytecode": "0x60806040526040518060400160405280600981526020017f456c6f6e204d75736b0000000000000000000000000000000000000000000000815250600090805190602001906200005192919062000147565b506040518060400160405280600381526020017f454d540000000000000000000000000000000000000000000000000000000000815250600190805190602001906200009f92919062000147565b506000600255620f4240600355348015620000b957600080fd5b50600354600560003373ffffffffffffffffffffffffffffffffffffffff1673ffffffffffffffffffffffffffffffffffffffff1681526020019081526020016000208190555033600460006101000a81548173ffffffffffffffffffffffffffffffffffffffff021916908373ffffffffffffffffffffffffffffffffffffffff1602179055506200025b565b828054620001559062000226565b90600052602060002090601f016020900481019282620001795760008555620001c5565b82601f106200019457805160ff1916838001178555620001c5565b82800160010185558215620001c5579182015b82811115620001c4578251825591602001919060010190620001a7565b5b509050620001d49190620001d8565b5090565b5b80821115620001f3576000816000905550600101620001d9565b5090565b7f4e487b7100000000000000000000000000000000000000000000000000000000600052602260045260246000fd5b600060028204905060018216806200023f57607f821691505b602082108103620002555762000254620001f7565b5b50919050565b61141b806200026b6000396000f3fe608060405234801561001057600080fd5b50600436106100f55760003560e01c806370a0823111610097578063a9059cbb11610066578063a9059cbb1461028c578063c4229b63146102bc578063dd62ed3e146102ec578063f4b160451461031c576100f5565b806370a082311461020257806372dd529b146102325780638da5cb5b1461025057806395d89b411461026e576100f5565b806318160ddd116100d357806318160ddd1461016657806323b872dd14610184578063313ce567146101b45780635e5c06e2146101d2576100f5565b8063069e4d7d146100fa57806306fdde0314610118578063095ea7b314610136575b600080fd5b61010261034c565b60405161010f9190610f31565b60405180910390f35b610120610372565b60405161012d9190610fe5565b60405180910390f35b610150600480360381019061014b919061106e565b610400565b60405161015d91906110c9565b60405180910390f35b61016e610581565b60405161017b91906110f3565b60405180910390f35b61019e6004803603810190610199919061110e565b61058b565b6040516101ab91906110c9565b60405180910390f35b6101bc610811565b6040516101c991906110f3565b60405180910390f35b6101ec60048036038101906101e79190611161565b610817565b6040516101f991906110f3565b60405180910390f35b61021c60048036038101906102179190611161565b61082f565b60405161022991906110f3565b60405180910390f35b61023a610878565b60405161024791906110f3565b60405180910390f35b61025861087e565b6040516102659190610f31565b60405180910390f35b610276610886565b6040516102839190610fe5565b60405180910390f35b6102a660048036038101906102a1919061106e565b610914565b6040516102b391906110c9565b60405180910390f35b6102d660048036038101906102d1919061106e565b610b9b565b6040516102e391906110c9565b60405180910390f35b6103066004803603810190610301919061118e565b610e44565b60405161031391906110f3565b60405180910390f35b6103366004803603810190610331919061118e565b610ecb565b60405161034391906110f3565b60405180910390f35b600460009054906101000a900473ffffffffffffffffffffffffffffffffffffffff1681565b6000805461037f906111fd565b80601f01602080910402602001604051908101604052809291908181526020018280546103ab906111fd565b80156103f85780601f106103cd576101008083540402835291602001916103f8565b820191906000526020600020905b8154815290600101906020018083116103db57829003601f168201915b505050505081565b600081600560003373ffffffffffffffffffffffffffffffffffffffff1673ffffffffffffffffffffffffffffffffffffffff168152602001908152602001600020541015610484576040517f08c379a000000000000000000000000000000000000000000000000000000000815260040161047b9061127a565b60405180910390fd5b6000821161049157600080fd5b81600660003373ffffffffffffffffffffffffffffffffffffffff1673ffffffffffffffffffffffffffffffffffffffff16815260200190815260200160002060008573ffffffffffffffffffffffffffffffffffffffff1673ffffffffffffffffffffffffffffffffffffffff168152602001908152602001600020819055508273ffffffffffffffffffffffffffffffffffffffff163373ffffffffffffffffffffffffffffffffffffffff167f8c5be1e5ebec7d5bd14f71427d1e84f3dd0314c0f7b2291e5b200ac8c7c3b9258460405161056f91906110f3565b60405180910390a36001905092915050565b6000600354905090565b600081600660008673ffffffffffffffffffffffffffffffffffffffff1673ffffffffffffffffffffffffffffffffffffffff16815260200190815260200160002060003373ffffffffffffffffffffffffffffffffffffffff1673ffffffffffffffffffffffffffffffffffffffff16815260200190815260200160002054101561061657600080fd5b81600560008673ffffffffffffffffffffffffffffffffffffffff1673ffffffffffffffffffffffffffffffffffffffff16815260200190815260200160002054101561066257600080fd5b81600560008673ffffffffffffffffffffffffffffffffffffffff1673ffffffffffffffffffffffffffffffffffffffff16815260200190815260200160002060008282546106b191906112c9565b9250508190555081600560008573ffffffffffffffffffffffffffffffffffffffff1673ffffffffffffffffffffffffffffffffffffffff168152602001908152602001600020600082825461070791906112fd565b9250508190555081600660008673ffffffffffffffffffffffffffffffffffffffff1673ffffffffffffffffffffffffffffffffffffffff16815260200190815260200160002060003373ffffffffffffffffffffffffffffffffffffffff1673ffffffffffffffffffffffffffffffffffffffff168152602001908152602001600020600082825461079a91906112c9565b925050819055508273ffffffffffffffffffffffffffffffffffffffff168473ffffffffffffffffffffffffffffffffffffffff167fddf252ad1be2c89b69c2b068fc378daa952ba7f163c4a11628f55a4df523b3ef846040516107fe91906110f3565b60405180910390a3600190509392505050565b60025481565b60056020528060005260406000206000915090505481565b6000600560008373ffffffffffffffffffffffffffffffffffffffff1673ffffffffffffffffffffffffffffffffffffffff168152602001908152602001600020549050919050565b60035481565b600033905090565b60018054610893906111fd565b80601f01602080910402602001604051908101604052809291908181526020018280546108bf906111fd565b801561090c5780601f106108e15761010080835404028352916020019161090c565b820191906000526020600020905b8154815290600101906020018083116108ef57829003601f168201915b505050505081565b600081600560008573ffffffffffffffffffffffffffffffffffffffff1673ffffffffffffffffffffffffffffffffffffffff168152602001908152602001600020541015610998576040517f08c379a000000000000000000000000000000000000000000000000000000000815260040161098f906113c5565b60405180910390fd5b6000600560008573ffffffffffffffffffffffffffffffffffffffff1673ffffffffffffffffffffffffffffffffffffffff16815260200190815260200160002054905082816109e891906112c9565b905080600560008673ffffffffffffffffffffffffffffffffffffffff1673ffffffffffffffffffffffffffffffffffffffff16815260200190815260200160002081905550600060056000600460009054906101000a900473ffffffffffffffffffffffffffffffffffffffff1673ffffffffffffffffffffffffffffffffffffffff1673ffffffffffffffffffffffffffffffffffffffff1681526020019081526020016000205490508381610aa091906112fd565b90508060056000600460009054906101000a900473ffffffffffffffffffffffffffffffffffffffff1673ffffffffffffffffffffffffffffffffffffffff1673ffffffffffffffffffffffffffffffffffffffff16815260200190815260200160002081905550600460009054906101000a900473ffffffffffffffffffffffffffffffffffffffff1673ffffffffffffffffffffffffffffffffffffffff168573ffffffffffffffffffffffffffffffffffffffff167fddf252ad1be2c89b69c2b068fc378daa952ba7f163c4a11628f55a4df523b3ef86604051610b8791906110f3565b60405180910390a360019250505092915050565b60008160056000600460009054906101000a900473ffffffffffffffffffffffffffffffffffffffff1673ffffffffffffffffffffffffffffffffffffffff1673ffffffffffffffffffffffffffffffffffffffff168152602001908152602001600020541015610c41576040517f08c379a0000000000000000000000000000000000000000000000000000000008152600401610c38906113c5565b60405180910390fd5b600060056000600460009054906101000a900473ffffffffffffffffffffffffffffffffffffffff1673ffffffffffffffffffffffffffffffffffffffff1673ffffffffffffffffffffffffffffffffffffffff1681526020019081526020016000205490508281610cb391906112c9565b90508060056000600460009054906101000a900473ffffffffffffffffffffffffffffffffffffffff1673ffffffffffffffffffffffffffffffffffffffff1673ffffffffffffffffffffffffffffffffffffffff168152602001908152602001600020819055506000600560008673ffffffffffffffffffffffffffffffffffffffff1673ffffffffffffffffffffffffffffffffffffffff1681526020019081526020016000205490508381610d6b91906112fd565b905080600560008773ffffffffffffffffffffffffffffffffffffffff1673ffffffffffffffffffffffffffffffffffffffff168152602001908152602001600020819055508473ffffffffffffffffffffffffffffffffffffffff16600460009054906101000a900473ffffffffffffffffffffffffffffffffffffffff1673ffffffffffffffffffffffffffffffffffffffff167fddf252ad1be2c89b69c2b068fc378daa952ba7f163c4a11628f55a4df523b3ef86604051610e3091906110f3565b60405180910390a360019250505092915050565b6000600660008473ffffffffffffffffffffffffffffffffffffffff1673ffffffffffffffffffffffffffffffffffffffff16815260200190815260200160002060008373ffffffffffffffffffffffffffffffffffffffff1673ffffffffffffffffffffffffffffffffffffffff16815260200190815260200160002054905092915050565b6006602052816000526040600020602052806000526040600020600091509150505481565b600073ffffffffffffffffffffffffffffffffffffffff82169050919050565b6000610f1b82610ef0565b9050919050565b610f2b81610f10565b82525050565b6000602082019050610f466000830184610f22565b92915050565b600081519050919050565b600082825260208201905092915050565b60005b83811015610f86578082015181840152602081019050610f6b565b83811115610f95576000848401525b50505050565b6000601f19601f8301169050919050565b6000610fb782610f4c565b610fc18185610f57565b9350610fd1818560208601610f68565b610fda81610f9b565b840191505092915050565b60006020820190508181036000830152610fff8184610fac565b905092915050565b600080fd5b61101581610f10565b811461102057600080fd5b50565b6000813590506110328161100c565b92915050565b6000819050919050565b61104b81611038565b811461105657600080fd5b50565b60008135905061106881611042565b92915050565b6000806040838503121561108557611084611007565b5b600061109385828601611023565b92505060206110a485828601611059565b9150509250929050565b60008115159050919050565b6110c3816110ae565b82525050565b60006020820190506110de60008301846110ba565b92915050565b6110ed81611038565b82525050565b600060208201905061110860008301846110e4565b92915050565b60008060006060848603121561112757611126611007565b5b600061113586828701611023565b935050602061114686828701611023565b925050604061115786828701611059565b9150509250925092565b60006020828403121561117757611176611007565b5b600061118584828501611023565b91505092915050565b600080604083850312156111a5576111a4611007565b5b60006111b385828601611023565b92505060206111c485828601611023565b9150509250929050565b7f4e487b7100000000000000000000000000000000000000000000000000000000600052602260045260246000fd5b6000600282049050600182168061121557607f821691505b602082108103611228576112276111ce565b5b50919050565b7f49742073686f756c642062652067726561746572000000000000000000000000600082015250565b6000611264601483610f57565b915061126f8261122e565b602082019050919050565b6000602082019050818103600083015261129381611257565b9050919050565b7f4e487b7100000000000000000000000000000000000000000000000000000000600052601160045260246000fd5b60006112d482611038565b91506112df83611038565b9250828210156112f2576112f161129a565b5b828203905092915050565b600061130882611038565b915061131383611038565b9250827fffffffffffffffffffffffffffffffffffffffffffffffffffffffffffffffff038211156113485761134761129a565b5b828201905092915050565b7f5468652073656e6465722063616e6e6f742073656e64206d6f7265207468616e60008201527f20776861742068652f736865206f776e73000000000000000000000000000000602082015250565b60006113af603183610f57565b91506113ba82611353565b604082019050919050565b600060208201905081810360008301526113de816113a2565b905091905056fea2646970667358221220def2bb1f4fd4ac7d49ef2421383e051b86bf4f9ad8f2b951365b36b0ac60f7eb64736f6c634300080e0033",
  "immutableReferences": {},
  "source": "// pragma solidity >=0.5.0 <0.9.0;\r\n\r\n// import \"@openzeppelin/contracts/token/ERC20/extensions/IERC20Metadata.sol\";\r\n// import \"@openzeppelin/contracts/utils/Context.sol\";\r\n\r\n\r\n// contract Creatorcoins is ERC20Custom{\r\n//     constructor() ERC20Custom('Elon Musk','EMC')\r\n//     {\r\n//         _mint(address(this),1000000);\r\n//     }\r\n    \r\n//     function approval(uint amount,address to) external returns(bool)\r\n//     {\r\n//         approve(address(this),to,amount+10);\r\n//         return true;\r\n//     }\r\n\r\n//     function allowed(address to) external returns(uint){\r\n//         return allowance(address(this),to);\r\n//     }\r\n//     function transfertokens(uint amount,address to) external returns(bool)\r\n//     {\r\n//         //This is the function that transfers the minted tokens from the smart contract address to the address that is calling the \r\n//         //function\r\n//         //The first thing to verify is whether the msg.sender is the actual address or not\r\n//         // require(msg.sender!=address(0),\"The transfer is not possible to a zero address\");\r\n//         // approve(to,amount);\r\n//         transferFrom(address(this),to,amount);\r\n//         return true;\r\n//     }\r\n\r\n//     function balance() external view returns(uint)\r\n//     {\r\n//         return balanceOf(address(this));\r\n//     }\r\n\r\n//     function balance(address _account) external view returns(uint)\r\n//     {\r\n//         return balanceOf(_account);\r\n//     }\r\n// }\r\n\r\n//SPDX-License-Identifier:UNLICENSED\r\n\r\npragma solidity >=0.5.0 <0.9.0;\r\n\r\n//There are 2 ways to implement the ERC20 interface\r\n\r\n//First is to just import the contract that is written by the open Zipplen which is a security company\r\n//if a security company such as Open Zeppelin is providing the community with certified contracts, then,\r\n// It is better leverage the ERC20 token logic creation to a security company, and focus on the contracts for application\r\n\r\n//The second way is to just copy paste the interface that is written in the ethereum community\r\n\r\ninterface ERC20Interface { \r\n    function totalSupply() external view returns (uint);\r\n    function balanceOf(address tokenOwner) external view returns (uint balance); \r\n    function transfering(address to, uint tokens) external returns (bool success);\r\n\r\n    function allowance(address tokenOwner, address spender) external view returns (uint remaining);\r\n    function approve(address spender, uint tokens) external returns (bool success);\r\n    function transferFrom(address from, address to, uint tokens) external returns (bool success);\r\n\r\n    event Transfer(address indexed from, address indexed to, uint tokens);\r\n    event Approval(address indexed tokenOwner, address indexed spender, uint tokens);\r\n}\r\n\r\n//Hence these are all the functions that we need to implement in our contract.\r\n\r\n//Now this is our smart contract which is going to implement all these functions \r\ncontract Creatorcoins is ERC20Interface{\r\n\r\n    //This is the name of the tokens\r\n    string public name=\"Elon Musk\";\r\n\r\n    //This is the symbol of the tokens\r\n    string public symbol=\"EMT\";\r\n\r\n    //This is the decimal places upto which the token can be divided\r\n    uint public decimals=0;\r\n\r\n    //This is the total supply of the tokens that will be available\r\n    //There are 1 million tokens\r\n    uint public totalsupply=1000000;\r\n\r\n    //This is the address of the owner of the smart contract\r\n    address public owneroftokens;\r\n\r\n    //This is the mapping which maps each address to the amount of tokens that the address holds\r\n    mapping(address=>uint) public accounts;\r\n\r\n    constructor() public{\r\n        accounts[msg.sender]=totalsupply;\r\n        owneroftokens=msg.sender;\r\n    }\r\n\r\n    function owner() public view returns(address)\r\n    {\r\n        return msg.sender;\r\n    }\r\n\r\n\r\n    //Now we are going to implement the totalSupply function which returns the total supply of the tokens\r\n    function totalSupply() public view returns(uint)\r\n    {\r\n        return totalsupply;\r\n    }\r\n\r\n    //This function implements the balanceOf function\r\n    function balanceOf(address tokenowner) public view returns(uint)\r\n    {\r\n        return accounts[tokenowner];\r\n    }\r\n\r\n    //This function implements the transfer function\r\n    //In this function we are transferring the tokens from the owner of the smart contract to the sender\r\n     function transfering(address to, uint tokens) public returns (bool success)\r\n     {\r\n         require(accounts[owneroftokens]>=tokens,\"The sender cannot send more than what he/she owns\");\r\n         uint change1=accounts[owneroftokens];\r\n         change1-=tokens;\r\n         accounts[owneroftokens]=change1;\r\n\r\n        uint change2=accounts[to];\r\n         change2+=tokens;\r\n         accounts[to]=change2;\r\n        //  accounts[owneroftokens]=accounts[owneroftokens]-tokens;\r\n        //  accounts[to]=accounts[to]+tokens;\r\n         emit Transfer(owneroftokens, to, tokens);\r\n         return true;\r\n     }\r\n\r\n     //In this function we are transferring the tokens from the sender to the owner\r\n     function transfer(address from,uint tokens) public returns(bool success)\r\n     {\r\n         require(accounts[from]>=tokens,\"The sender cannot send more than what he/she owns\");\r\n         uint change1=accounts[from];\r\n         change1-=tokens;\r\n         accounts[from]=change1;\r\n\r\n        uint change2=accounts[owneroftokens];\r\n         change2+=tokens;\r\n         accounts[owneroftokens]=change2;\r\n        //  accounts[owneroftokens]=accounts[owneroftokens]-tokens;\r\n        //  accounts[to]=accounts[to]+tokens;\r\n         emit Transfer(from,owneroftokens , tokens);\r\n         return true;\r\n     }\r\n\r\n     mapping(address=>mapping(address=>uint)) public approved;\r\n\r\n     //This is the approve function which means that the sender approves the to that he/she can spend this much of money\r\n     //It is like writing a cheque to another person\r\n     function approve(address spender, uint tokens) public returns (bool success)\r\n     {\r\n         require(accounts[msg.sender]>=tokens,\"It should be greater\");\r\n         require(tokens>0);\r\n         approved[msg.sender][spender]=tokens;\r\n         emit Approval(msg.sender, spender, tokens);\r\n         return true;\r\n     }\r\n\r\n     function allowance(address tokenOwner, address spender) public view returns (uint)\r\n    {\r\n        return approved[tokenOwner][spender];\r\n    }\r\n\r\n    function transferFrom(address from,address to,uint tokens) public returns(bool)\r\n    {\r\n        //We first need to check in the approved mapping whether the tokens are greater than the argument\r\n        require(approved[from][msg.sender]>=tokens);\r\n        require(accounts[from]>=tokens);\r\n\r\n        accounts[from]-=tokens;\r\n        accounts[to]+=tokens;\r\n        approved[from][msg.sender]-=tokens;\r\n\r\n        emit Transfer(from,to,tokens);\r\n        return true;\r\n\r\n    }\r\n\r\n\r\n}\r\n",
  "sourcePath": "C:\\Users\\Bhaskar\\Desktop\\web 3.0\\FameVest\\truffle\\contracts\\Creatorcoins.sol",
  "compiler": {
    "name": "solc",
    "version": "0.8.14+commit.80d49f37.Emscripten.clang"
  },
  "schemaVersion": "3.4.9",
  "updatedAt": "2022-08-30T14:20:11.536Z",
  "networkType": "ethereum",
  "devdoc": {
    "kind": "dev",
    "methods": {},
    "version": 1
  },
  "userdoc": {
    "kind": "user",
    "methods": {},
    "version": 1
  }
}